{
  "contractName": "GST",
  "abi": [
    {
      "inputs": [
        {
          "internalType": "uint256",
          "name": "_initialSupply",
          "type": "uint256"
        }
      ],
      "stateMutability": "nonpayable",
      "type": "constructor"
    },
    {
      "anonymous": false,
      "inputs": [
        {
          "indexed": true,
          "internalType": "address",
          "name": "_from",
          "type": "address"
        },
        {
          "indexed": true,
          "internalType": "address",
          "name": "_to",
          "type": "address"
        },
        {
          "indexed": false,
          "internalType": "uint256",
          "name": "_value",
          "type": "uint256"
        }
      ],
      "name": "Transfer",
      "type": "event"
    },
    {
      "inputs": [
        {
          "internalType": "address",
          "name": "",
          "type": "address"
        },
        {
          "internalType": "address",
          "name": "",
          "type": "address"
        }
      ],
      "name": "allowance",
      "outputs": [
        {
          "internalType": "uint256",
          "name": "",
          "type": "uint256"
        }
      ],
      "stateMutability": "view",
      "type": "function",
      "constant": true
    },
    {
      "inputs": [
        {
          "internalType": "address",
          "name": "",
          "type": "address"
        }
      ],
      "name": "balanceOf",
      "outputs": [
        {
          "internalType": "uint256",
          "name": "",
          "type": "uint256"
        }
      ],
      "stateMutability": "view",
      "type": "function",
      "constant": true
    },
    {
      "inputs": [
        {
          "internalType": "uint256",
          "name": "mintAmount",
          "type": "uint256"
        }
      ],
      "name": "totalSupply",
      "outputs": [
        {
          "internalType": "bool",
          "name": "",
          "type": "bool"
        }
      ],
      "stateMutability": "nonpayable",
      "type": "function"
    },
    {
      "inputs": [
        {
          "internalType": "address",
          "name": "_to",
          "type": "address"
        },
        {
          "internalType": "uint256",
          "name": "_value",
          "type": "uint256"
        },
        {
          "internalType": "bool",
          "name": "cash_type",
          "type": "bool"
        }
      ],
      "name": "transfer",
      "outputs": [
        {
          "internalType": "bool",
          "name": "success",
          "type": "bool"
        }
      ],
      "stateMutability": "nonpayable",
      "type": "function"
    },
    {
      "inputs": [],
      "name": "paymentData",
      "outputs": [
        {
          "components": [
            {
              "internalType": "uint256",
              "name": "timestamp",
              "type": "uint256"
            },
            {
              "internalType": "uint256",
              "name": "receiptCode",
              "type": "uint256"
            },
            {
              "internalType": "uint256",
              "name": "amount",
              "type": "uint256"
            },
            {
              "internalType": "bool",
              "name": "cash",
              "type": "bool"
            }
          ],
          "internalType": "struct GST.payment[]",
          "name": "",
          "type": "tuple[]"
        },
        {
          "components": [
            {
              "internalType": "uint256",
              "name": "timestamp",
              "type": "uint256"
            },
            {
              "internalType": "uint256",
              "name": "receiptCode",
              "type": "uint256"
            },
            {
              "internalType": "uint256",
              "name": "amount",
              "type": "uint256"
            },
            {
              "internalType": "bool",
              "name": "cash",
              "type": "bool"
            }
          ],
          "internalType": "struct GST.payment[]",
          "name": "",
          "type": "tuple[]"
        }
      ],
      "stateMutability": "view",
      "type": "function",
      "constant": true
    },
    {
      "inputs": [
        {
          "internalType": "address",
          "name": "buyer",
          "type": "address"
        },
        {
          "components": [
            {
              "internalType": "uint256",
              "name": "product_code",
              "type": "uint256"
            },
            {
              "internalType": "uint256",
              "name": "price",
              "type": "uint256"
            },
            {
              "internalType": "uint256",
              "name": "qty",
              "type": "uint256"
            }
          ],
          "internalType": "struct GST.item[]",
          "name": "items",
          "type": "tuple[]"
        }
      ],
      "name": "createInvoice",
      "outputs": [
        {
          "internalType": "uint256",
          "name": "",
          "type": "uint256"
        },
        {
          "internalType": "bool",
          "name": "",
          "type": "bool"
        }
      ],
      "stateMutability": "nonpayable",
      "type": "function"
    },
    {
      "inputs": [
        {
          "internalType": "address",
          "name": "user",
          "type": "address"
        },
        {
          "internalType": "uint256",
          "name": "amount",
          "type": "uint256"
        }
      ],
      "name": "payAmount",
      "outputs": [
        {
          "internalType": "bool",
          "name": "",
          "type": "bool"
        }
      ],
      "stateMutability": "nonpayable",
      "type": "function"
    },
    {
      "inputs": [
        {
          "internalType": "address",
          "name": "buyer",
          "type": "address"
        },
        {
          "internalType": "uint256",
          "name": "total_gst",
          "type": "uint256"
        },
        {
          "internalType": "uint256",
          "name": "total",
          "type": "uint256"
        }
      ],
      "name": "createInvoicePlain",
      "outputs": [
        {
          "internalType": "uint256",
          "name": "",
          "type": "uint256"
        },
        {
          "internalType": "bool",
          "name": "",
          "type": "bool"
        }
      ],
      "stateMutability": "nonpayable",
      "type": "function"
    },
    {
      "inputs": [],
      "name": "queryInv",
      "outputs": [
        {
          "components": [
            {
              "internalType": "uint256",
              "name": "buyer",
              "type": "uint256"
            },
            {
              "internalType": "address",
              "name": "buyer_address",
              "type": "address"
            },
            {
              "internalType": "uint256",
              "name": "seller",
              "type": "uint256"
            },
            {
              "internalType": "address",
              "name": "seller_address",
              "type": "address"
            },
            {
              "internalType": "uint256",
              "name": "invoice_code",
              "type": "uint256"
            },
            {
              "internalType": "uint256",
              "name": "total_gst",
              "type": "uint256"
            },
            {
              "internalType": "uint256",
              "name": "total",
              "type": "uint256"
            },
            {
              "internalType": "uint256",
              "name": "timestamp",
              "type": "uint256"
            }
          ],
          "internalType": "struct GST.invoice[]",
          "name": "",
          "type": "tuple[]"
        }
      ],
      "stateMutability": "view",
      "type": "function",
      "constant": true
    },
    {
      "inputs": [],
      "name": "addTrader",
      "outputs": [
        {
          "internalType": "uint256",
          "name": "",
          "type": "uint256"
        }
      ],
      "stateMutability": "nonpayable",
      "type": "function"
    },
    {
      "inputs": [
        {
          "internalType": "uint256",
          "name": "code",
          "type": "uint256"
        }
      ],
      "name": "invoiceCode",
      "outputs": [
        {
          "components": [
            {
              "internalType": "uint256",
              "name": "buyer",
              "type": "uint256"
            },
            {
              "internalType": "address",
              "name": "buyer_address",
              "type": "address"
            },
            {
              "internalType": "uint256",
              "name": "seller",
              "type": "uint256"
            },
            {
              "internalType": "address",
              "name": "seller_address",
              "type": "address"
            },
            {
              "internalType": "uint256",
              "name": "invoice_code",
              "type": "uint256"
            },
            {
              "internalType": "uint256",
              "name": "total_gst",
              "type": "uint256"
            },
            {
              "internalType": "uint256",
              "name": "total",
              "type": "uint256"
            },
            {
              "internalType": "uint256",
              "name": "timestamp",
              "type": "uint256"
            }
          ],
          "internalType": "struct GST.invoice",
          "name": "",
          "type": "tuple"
        }
      ],
      "stateMutability": "view",
      "type": "function",
      "constant": true
    },
    {
      "inputs": [],
      "name": "checkTrader",
      "outputs": [
        {
          "internalType": "bool",
          "name": "",
          "type": "bool"
        }
      ],
      "stateMutability": "view",
      "type": "function",
      "constant": true
    },
    {
      "inputs": [
        {
          "internalType": "address",
          "name": "user",
          "type": "address"
        }
      ],
      "name": "checkBalance",
      "outputs": [
        {
          "internalType": "uint256",
          "name": "",
          "type": "uint256"
        }
      ],
      "stateMutability": "view",
      "type": "function",
      "constant": true
    },
    {
      "inputs": [],
      "name": "selfBalance",
      "outputs": [
        {
          "internalType": "uint256",
          "name": "",
          "type": "uint256"
        }
      ],
      "stateMutability": "view",
      "type": "function",
      "constant": true
    },
    {
      "inputs": [
        {
          "internalType": "string",
          "name": "name",
          "type": "string"
        },
        {
          "internalType": "uint256",
          "name": "rate",
          "type": "uint256"
        }
      ],
      "name": "addProduct",
      "outputs": [
        {
          "internalType": "uint256",
          "name": "",
          "type": "uint256"
        }
      ],
      "stateMutability": "nonpayable",
      "type": "function"
    }
  ],
  "bytecode": "0x60806040523480156200001157600080fd5b506040516200289e3803806200289e833981810160405281019062000037919062000170565b600060158190555060006016819055506000601781905550600060188190555033600160006101000a81548173ffffffffffffffffffffffffffffffffffffffff021916908373ffffffffffffffffffffffffffffffffffffffff16021790555080600260003373ffffffffffffffffffffffffffffffffffffffff1673ffffffffffffffffffffffffffffffffffffffff1681526020019081526020016000208190555080600081905550601554601160003373ffffffffffffffffffffffffffffffffffffffff1673ffffffffffffffffffffffffffffffffffffffff1681526020019081526020016000208190555050620001a2565b600080fd5b6000819050919050565b6200014a8162000135565b81146200015657600080fd5b50565b6000815190506200016a816200013f565b92915050565b60006020828403121562000189576200018862000130565b5b6000620001998482850162000159565b91505092915050565b6126ec80620001b26000396000f3fe608060405234801561001057600080fd5b50600436106100f45760003560e01c8063983f7b6811610097578063dd62ed3e11610066578063dd62ed3e146102d5578063e1ad116214610305578063e2e5750c14610335578063f4aa88b314610354576100f4565b8063983f7b6814610239578063b0bed0ba14610257578063b15247d914610275578063bd85b039146102a5576100f4565b806349273d83116100d357806349273d83146101785780635f515226146101a857806370a08231146101d8578063808dd97314610208576100f4565b8062b375b6146100f9578063050ed860146101175780633c3421e114610147575b600080fd5b610101610372565b60405161010e9190611815565b60405180910390f35b610131600480360381019061012c91906118d8565b61041a565b60405161013e9190611815565b60405180910390f35b610161600480360381019061015c9190611918565b610441565b60405161016f92919061197a565b60405180910390f35b610192600480360381019061018d91906119a3565b6107f9565b60405161019f9190611a90565b60405180910390f35b6101c260048036038101906101bd9190611aac565b61090f565b6040516101cf9190611ad9565b60405180910390f35b6101f260048036038101906101ed9190611aac565b610958565b6040516101ff9190611ad9565b60405180910390f35b610222600480360381019061021d9190611cb6565b610970565b60405161023092919061197a565b60405180910390f35b610241610e2e565b60405161024e9190611ad9565b60405180910390f35b61025f610f4f565b60405161026c9190611ad9565b60405180910390f35b61028f600480360381019061028a9190611dc7565b610f96565b60405161029c9190611ad9565b60405180910390f35b6102bf60048036038101906102ba91906119a3565b611042565b6040516102cc9190611815565b60405180910390f35b6102ef60048036038101906102ea9190611e23565b611102565b6040516102fc9190611ad9565b60405180910390f35b61031f600480360381019061031a9190611e8f565b611127565b60405161032c9190611815565b60405180910390f35b61033d61142d565b60405161034b929190611ff5565b60405180910390f35b61035c6115da565b604051610369919061217e565b60405180910390f35b6000805b601980549050811015610411573373ffffffffffffffffffffffffffffffffffffffff16601982815481106103ae576103ad6121a0565b5b9060005260206000200160009054906101000a900473ffffffffffffffffffffffffffffffffffffffff1673ffffffffffffffffffffffffffffffffffffffff16036103fe576001915050610417565b8080610409906121fe565b915050610376565b50600090505b90565b600061042883836001611127565b15610436576001905061043b565b600090505b92915050565b60008061044c611768565b6000429050604051806101000160405280601160008a73ffffffffffffffffffffffffffffffffffffffff1673ffffffffffffffffffffffffffffffffffffffff1681526020019081526020016000205481526020018873ffffffffffffffffffffffffffffffffffffffff168152602001601160003373ffffffffffffffffffffffffffffffffffffffff1673ffffffffffffffffffffffffffffffffffffffff1681526020019081526020016000205481526020013373ffffffffffffffffffffffffffffffffffffffff1681526020016000815260200187815260200186815260200182815250915061054061175f565b156107e757610555878360a001516000611127565b156107ac5760016016600082825461056d9190612246565b925050819055506016548260800181815250508160086000846080015181526020019081526020016000206000820151816000015560208201518160010160006101000a81548173ffffffffffffffffffffffffffffffffffffffff021916908373ffffffffffffffffffffffffffffffffffffffff1602179055506040820151816002015560608201518160030160006101000a81548173ffffffffffffffffffffffffffffffffffffffff021916908373ffffffffffffffffffffffffffffffffffffffff1602179055506080820151816004015560a0820151816005015560c0820151816006015560e08201518160070155905050601260003373ffffffffffffffffffffffffffffffffffffffff1673ffffffffffffffffffffffffffffffffffffffff1681526020019081526020016000208290806001815401808255809150506001900390600052602060002090600802016000909190919091506000820151816000015560208201518160010160006101000a81548173ffffffffffffffffffffffffffffffffffffffff021916908373ffffffffffffffffffffffffffffffffffffffff1602179055506040820151816002015560608201518160030160006101000a81548173ffffffffffffffffffffffffffffffffffffffff021916908373ffffffffffffffffffffffffffffffffffffffff1602179055506080820151816004015560a0820151816005015560c0820151816006015560e082015181600701555050816080015160009350935050506107f1565b6040517f08c379a00000000000000000000000000000000000000000000000000000000081526004016107de906122d7565b60405180910390fd5b6000809350935050505b935093915050565b610801611768565b6008600083815260200190815260200160002060405180610100016040529081600082015481526020016001820160009054906101000a900473ffffffffffffffffffffffffffffffffffffffff1673ffffffffffffffffffffffffffffffffffffffff1673ffffffffffffffffffffffffffffffffffffffff168152602001600282015481526020016003820160009054906101000a900473ffffffffffffffffffffffffffffffffffffffff1673ffffffffffffffffffffffffffffffffffffffff1673ffffffffffffffffffffffffffffffffffffffff1681526020016004820154815260200160058201548152602001600682015481526020016007820154815250509050919050565b6000600260008373ffffffffffffffffffffffffffffffffffffffff1673ffffffffffffffffffffffffffffffffffffffff168152602001908152602001600020549050919050565b60026020528060005260406000206000915090505481565b60008061097b611768565b604051806101000160405280601160008873ffffffffffffffffffffffffffffffffffffffff1673ffffffffffffffffffffffffffffffffffffffff1681526020019081526020016000205481526020018673ffffffffffffffffffffffffffffffffffffffff168152602001601160003373ffffffffffffffffffffffffffffffffffffffff1673ffffffffffffffffffffffffffffffffffffffff1681526020019081526020016000205481526020013373ffffffffffffffffffffffffffffffffffffffff1681526020016000815260200160008152602001600081526020016000815250905060008060008060008060005b8a51811015610b4f578a8181518110610a8d57610a8c6121a0565b5b60200260200101516000015194508a8181518110610aae57610aad6121a0565b5b60200260200101516040015193508a8181518110610acf57610ace6121a0565b5b6020026020010151602001519250600e60008681526020019081526020016000205491508383610aff91906122f7565b86610b0a9190612246565b95506064848385610b1b91906122f7565b610b2591906122f7565b610b2f9190612368565b87610b3a9190612246565b96508080610b47906121fe565b915050610a71565b50858760a0018181525050848760c0018181525050610b6c61175f565b15610e1857610b818b8860a001516000611127565b15610ddd57600160166000828254610b999190612246565b925050819055506016548760800181815250508660086000896080015181526020019081526020016000206000820151816000015560208201518160010160006101000a81548173ffffffffffffffffffffffffffffffffffffffff021916908373ffffffffffffffffffffffffffffffffffffffff1602179055506040820151816002015560608201518160030160006101000a81548173ffffffffffffffffffffffffffffffffffffffff021916908373ffffffffffffffffffffffffffffffffffffffff1602179055506080820151816004015560a0820151816005015560c0820151816006015560e08201518160070155905050601260003373ffffffffffffffffffffffffffffffffffffffff1673ffffffffffffffffffffffffffffffffffffffff1681526020019081526020016000208790806001815401808255809150506001900390600052602060002090600802016000909190919091506000820151816000015560208201518160010160006101000a81548173ffffffffffffffffffffffffffffffffffffffff021916908373ffffffffffffffffffffffffffffffffffffffff1602179055506040820151816002015560608201518160030160006101000a81548173ffffffffffffffffffffffffffffffffffffffff021916908373ffffffffffffffffffffffffffffffffffffffff1602179055506080820151816004015560a0820151816005015560c0820151816006015560e082015181600701555050866080015160009850985050505050505050610e27565b6040517f08c379a0000000000000000000000000000000000000000000000000000000008152600401610e0f906122d7565b60405180910390fd5b60008098509850505050505050505b9250929050565b6000600160156000828254610e439190612246565b92505081905550601554601160003373ffffffffffffffffffffffffffffffffffffffff1673ffffffffffffffffffffffffffffffffffffffff1681526020019081526020016000208190555033600d6000601554815260200190815260200160002060006101000a81548173ffffffffffffffffffffffffffffffffffffffff021916908373ffffffffffffffffffffffffffffffffffffffff1602179055506019339080600181540180825580915050600190039060005260206000200160009091909190916101000a81548173ffffffffffffffffffffffffffffffffffffffff021916908373ffffffffffffffffffffffffffffffffffffffff160217905550601554905090565b6000600260003373ffffffffffffffffffffffffffffffffffffffff1673ffffffffffffffffffffffffffffffffffffffff16815260200190815260200160002054905090565b6000600160176000828254610fab9190612246565b9250508190555081600e6000601754815260200190815260200160002081905550610fd46117d9565b6040518060600160405280858152602001601754815260200184815250905080600f60006017548152602001908152602001600020600082015181600001908161101e91906125b0565b50602082015181600101556040820151816002015590505060175491505092915050565b60003373ffffffffffffffffffffffffffffffffffffffff16600160009054906101000a900473ffffffffffffffffffffffffffffffffffffffff1673ffffffffffffffffffffffffffffffffffffffff16036110f85781600260003373ffffffffffffffffffffffffffffffffffffffff1673ffffffffffffffffffffffffffffffffffffffff16815260200190815260200160002060008282546110e89190612246565b92505081905550600190506110fd565b600090505b919050565b6003602052816000526040600020602052806000526040600020600091509150505481565b600082600260003373ffffffffffffffffffffffffffffffffffffffff1673ffffffffffffffffffffffffffffffffffffffff16815260200190815260200160002054101561117557600080fd5b600042905083600260003373ffffffffffffffffffffffffffffffffffffffff1673ffffffffffffffffffffffffffffffffffffffff16815260200190815260200160002060008282546111c99190612682565b9250508190555083600260008773ffffffffffffffffffffffffffffffffffffffff1673ffffffffffffffffffffffffffffffffffffffff168152602001908152602001600020600082825461121f9190612246565b925050819055506001601860008282546112399190612246565b925050819055506000604051806080016040528083815260200160185481526020018681526020018515158152509050601360008773ffffffffffffffffffffffffffffffffffffffff1673ffffffffffffffffffffffffffffffffffffffff16815260200190815260200160002081908060018154018082558091505060019003906000526020600020906004020160009091909190915060008201518160000155602082015181600101556040820151816002015560608201518160030160006101000a81548160ff0219169083151502179055505050601460003373ffffffffffffffffffffffffffffffffffffffff1673ffffffffffffffffffffffffffffffffffffffff16815260200190815260200160002081908060018154018082558091505060019003906000526020600020906004020160009091909190915060008201518160000155602082015181600101556040820151816002015560608201518160030160006101000a81548160ff02191690831515021790555050508573ffffffffffffffffffffffffffffffffffffffff163373ffffffffffffffffffffffffffffffffffffffff167fddf252ad1be2c89b69c2b068fc378daa952ba7f163c4a11628f55a4df523b3ef876040516114189190611ad9565b60405180910390a36001925050509392505050565b606080601360003373ffffffffffffffffffffffffffffffffffffffff1673ffffffffffffffffffffffffffffffffffffffff168152602001908152602001600020601460003373ffffffffffffffffffffffffffffffffffffffff1673ffffffffffffffffffffffffffffffffffffffff16815260200190815260200160002081805480602002602001604051908101604052809291908181526020016000905b8282101561153a57838290600052602060002090600402016040518060800160405290816000820154815260200160018201548152602001600282015481526020016003820160009054906101000a900460ff161515151581525050815260200190600101906114cf565b50505050915080805480602002602001604051908101604052809291908181526020016000905b828210156115cc57838290600052602060002090600402016040518060800160405290816000820154815260200160018201548152602001600282015481526020016003820160009054906101000a900460ff16151515158152505081526020019060010190611561565b505050509050915091509091565b6060601260003373ffffffffffffffffffffffffffffffffffffffff1673ffffffffffffffffffffffffffffffffffffffff168152602001908152602001600020805480602002602001604051908101604052809291908181526020016000905b82821015611756578382906000526020600020906008020160405180610100016040529081600082015481526020016001820160009054906101000a900473ffffffffffffffffffffffffffffffffffffffff1673ffffffffffffffffffffffffffffffffffffffff1673ffffffffffffffffffffffffffffffffffffffff168152602001600282015481526020016003820160009054906101000a900473ffffffffffffffffffffffffffffffffffffffff1673ffffffffffffffffffffffffffffffffffffffff1673ffffffffffffffffffffffffffffffffffffffff1681526020016004820154815260200160058201548152602001600682015481526020016007820154815250508152602001906001019061163b565b50505050905090565b60006001905090565b60405180610100016040528060008152602001600073ffffffffffffffffffffffffffffffffffffffff16815260200160008152602001600073ffffffffffffffffffffffffffffffffffffffff168152602001600081526020016000815260200160008152602001600081525090565b60405180606001604052806060815260200160008152602001600081525090565b60008115159050919050565b61180f816117fa565b82525050565b600060208201905061182a6000830184611806565b92915050565b6000604051905090565b600080fd5b600080fd5b600073ffffffffffffffffffffffffffffffffffffffff82169050919050565b600061186f82611844565b9050919050565b61187f81611864565b811461188a57600080fd5b50565b60008135905061189c81611876565b92915050565b6000819050919050565b6118b5816118a2565b81146118c057600080fd5b50565b6000813590506118d2816118ac565b92915050565b600080604083850312156118ef576118ee61183a565b5b60006118fd8582860161188d565b925050602061190e858286016118c3565b9150509250929050565b6000806000606084860312156119315761193061183a565b5b600061193f8682870161188d565b9350506020611950868287016118c3565b9250506040611961868287016118c3565b9150509250925092565b611974816118a2565b82525050565b600060408201905061198f600083018561196b565b61199c6020830184611806565b9392505050565b6000602082840312156119b9576119b861183a565b5b60006119c7848285016118c3565b91505092915050565b6119d9816118a2565b82525050565b6119e881611864565b82525050565b61010082016000820151611a0560008501826119d0565b506020820151611a1860208501826119df565b506040820151611a2b60408501826119d0565b506060820151611a3e60608501826119df565b506080820151611a5160808501826119d0565b5060a0820151611a6460a08501826119d0565b5060c0820151611a7760c08501826119d0565b5060e0820151611a8a60e08501826119d0565b50505050565b600061010082019050611aa660008301846119ee565b92915050565b600060208284031215611ac257611ac161183a565b5b6000611ad08482850161188d565b91505092915050565b6000602082019050611aee600083018461196b565b92915050565b600080fd5b6000601f19601f8301169050919050565b7f4e487b7100000000000000000000000000000000000000000000000000000000600052604160045260246000fd5b611b4282611af9565b810181811067ffffffffffffffff82111715611b6157611b60611b0a565b5b80604052505050565b6000611b74611830565b9050611b808282611b39565b919050565b600067ffffffffffffffff821115611ba057611b9f611b0a565b5b602082029050602081019050919050565b600080fd5b600080fd5b600060608284031215611bd157611bd0611bb6565b5b611bdb6060611b6a565b90506000611beb848285016118c3565b6000830152506020611bff848285016118c3565b6020830152506040611c13848285016118c3565b60408301525092915050565b6000611c32611c2d84611b85565b611b6a565b90508083825260208201905060608402830185811115611c5557611c54611bb1565b5b835b81811015611c7e5780611c6a8882611bbb565b845260208401935050606081019050611c57565b5050509392505050565b600082601f830112611c9d57611c9c611af4565b5b8135611cad848260208601611c1f565b91505092915050565b60008060408385031215611ccd57611ccc61183a565b5b6000611cdb8582860161188d565b925050602083013567ffffffffffffffff811115611cfc57611cfb61183f565b5b611d0885828601611c88565b9150509250929050565b600080fd5b600067ffffffffffffffff821115611d3257611d31611b0a565b5b611d3b82611af9565b9050602081019050919050565b82818337600083830152505050565b6000611d6a611d6584611d17565b611b6a565b905082815260208101848484011115611d8657611d85611d12565b5b611d91848285611d48565b509392505050565b600082601f830112611dae57611dad611af4565b5b8135611dbe848260208601611d57565b91505092915050565b60008060408385031215611dde57611ddd61183a565b5b600083013567ffffffffffffffff811115611dfc57611dfb61183f565b5b611e0885828601611d99565b9250506020611e19858286016118c3565b9150509250929050565b60008060408385031215611e3a57611e3961183a565b5b6000611e488582860161188d565b9250506020611e598582860161188d565b9150509250929050565b611e6c816117fa565b8114611e7757600080fd5b50565b600081359050611e8981611e63565b92915050565b600080600060608486031215611ea857611ea761183a565b5b6000611eb68682870161188d565b9350506020611ec7868287016118c3565b9250506040611ed886828701611e7a565b9150509250925092565b600081519050919050565b600082825260208201905092915050565b6000819050602082019050919050565b611f17816117fa565b82525050565b608082016000820151611f3360008501826119d0565b506020820151611f4660208501826119d0565b506040820151611f5960408501826119d0565b506060820151611f6c6060850182611f0e565b50505050565b6000611f7e8383611f1d565b60808301905092915050565b6000602082019050919050565b6000611fa282611ee2565b611fac8185611eed565b9350611fb783611efe565b8060005b83811015611fe8578151611fcf8882611f72565b9750611fda83611f8a565b925050600181019050611fbb565b5085935050505092915050565b6000604082019050818103600083015261200f8185611f97565b905081810360208301526120238184611f97565b90509392505050565b600081519050919050565b600082825260208201905092915050565b6000819050602082019050919050565b6101008201600082015161206f60008501826119d0565b50602082015161208260208501826119df565b50604082015161209560408501826119d0565b5060608201516120a860608501826119df565b5060808201516120bb60808501826119d0565b5060a08201516120ce60a08501826119d0565b5060c08201516120e160c08501826119d0565b5060e08201516120f460e08501826119d0565b50505050565b60006121068383612058565b6101008301905092915050565b6000602082019050919050565b600061212b8261202c565b6121358185612037565b935061214083612048565b8060005b8381101561217157815161215888826120fa565b975061216383612113565b925050600181019050612144565b5085935050505092915050565b600060208201905081810360008301526121988184612120565b905092915050565b7f4e487b7100000000000000000000000000000000000000000000000000000000600052603260045260246000fd5b7f4e487b7100000000000000000000000000000000000000000000000000000000600052601160045260246000fd5b6000612209826118a2565b91507fffffffffffffffffffffffffffffffffffffffffffffffffffffffffffffffff820361223b5761223a6121cf565b5b600182019050919050565b6000612251826118a2565b915061225c836118a2565b9250828201905080821115612274576122736121cf565b5b92915050565b600082825260208201905092915050565b7f496e76616c69642076616c756500000000000000000000000000000000000000600082015250565b60006122c1600d8361227a565b91506122cc8261228b565b602082019050919050565b600060208201905081810360008301526122f0816122b4565b9050919050565b6000612302826118a2565b915061230d836118a2565b925082820261231b816118a2565b91508282048414831517612332576123316121cf565b5b5092915050565b7f4e487b7100000000000000000000000000000000000000000000000000000000600052601260045260246000fd5b6000612373826118a2565b915061237e836118a2565b92508261238e5761238d612339565b5b828204905092915050565b600081519050919050565b7f4e487b7100000000000000000000000000000000000000000000000000000000600052602260045260246000fd5b600060028204905060018216806123eb57607f821691505b6020821081036123fe576123fd6123a4565b5b50919050565b60008190508160005260206000209050919050565b60006020601f8301049050919050565b600082821b905092915050565b6000600883026124667fffffffffffffffffffffffffffffffffffffffffffffffffffffffffffffffff82612429565b6124708683612429565b95508019841693508086168417925050509392505050565b6000819050919050565b60006124ad6124a86124a3846118a2565b612488565b6118a2565b9050919050565b6000819050919050565b6124c783612492565b6124db6124d3826124b4565b848454612436565b825550505050565b600090565b6124f06124e3565b6124fb8184846124be565b505050565b5b8181101561251f576125146000826124e8565b600181019050612501565b5050565b601f8211156125645761253581612404565b61253e84612419565b8101602085101561254d578190505b61256161255985612419565b830182612500565b50505b505050565b600082821c905092915050565b600061258760001984600802612569565b1980831691505092915050565b60006125a08383612576565b9150826002028217905092915050565b6125b982612399565b67ffffffffffffffff8111156125d2576125d1611b0a565b5b6125dc82546123d3565b6125e7828285612523565b600060209050601f83116001811461261a5760008415612608578287015190505b6126128582612594565b86555061267a565b601f19841661262886612404565b60005b828110156126505784890151825560018201915060208501945060208101905061262b565b8683101561266d5784890151612669601f891682612576565b8355505b6001600288020188555050505b505050505050565b600061268d826118a2565b9150612698836118a2565b92508282039050818111156126b0576126af6121cf565b5b9291505056fea26469706673582212206c5e9810e6f831b9f5a56dc9375a6d51d9e18a6f5edd717a1d48327332cde94664736f6c63430008110033",
  "immutableReferences": {},
  "source": "// SPDX-License-Identifier: MIT\npragma solidity >=0.4.22 <0.9.0;\n\ncontract GST {\n  \n\nuint256 _totalSupply;\naddress manager;\n\nconstructor(uint256 _initialSupply) {\n      account_counter = 0;   // Using State variable\n      invoice_counter = 0;\n      product_counter = 0;\n      payment_counter = 0;\n      manager=msg.sender;\n      balanceOf[msg.sender] = _initialSupply;\n      _totalSupply = _initialSupply;\n      address_code[msg.sender]=account_counter;\n   }\n\nfunction totalSupply(uint mintAmount) public returns (bool) {\n    if (manager == msg.sender){\n        balanceOf[msg.sender]+=mintAmount;\n        return true;\n    }\n    return false;\n\n\n}\n\nstruct product {\n\tstring name;\n\tuint product_code;\n    uint gst_rate;\n\t\n    }\n\nstruct Set {\n        uint[] values;\n        mapping (uint => bool) is_in;\n    }\n\n\nstruct trader {\n    string name;\n    address trader_code;\n\tuint gstn_code;\n}\n\nstruct invoice{\n    uint buyer;\n    address buyer_address;\n    uint seller;\n    address seller_address;\n    uint invoice_code;\n    uint total_gst;\n    uint total;\n    uint timestamp;\n}\n\nevent Transfer(\n        address indexed _from,\n        address indexed _to,\n        uint256 _value\n    );\n\n    \n\nmapping(address => uint256) public balanceOf;\n    mapping(address => mapping(address => uint256)) public allowance;\n\n\n\nstruct item{\n    uint product_code;\n    uint price;\n    uint qty;\n}\n\nstruct payment{\n    uint timestamp;\n    uint receiptCode;\n    uint256 amount;\n    bool cash;\n}\n\nmapping (uint => product) code_product;\nmapping (uint => uint) account_balance;\nmapping (uint => uint) account_trader;\nmapping (uint => trader) code_trader;\nmapping (uint => invoice) code_invoice;\nmapping (uint => payment[]) payment_trader_prooflist;\nmapping (uint => uint) payment_receipt_trader_code;\nmapping (uint => string) payment_receipt_proof;\nmapping (uint => invoice[]) invoice_trader_list;\nmapping (uint => address) code_address;\nmapping (uint => uint)gst_rate;\nmapping (uint => product) product_list;\nmapping (uint => item) inv_items;\nmapping (address => uint) address_code;\nmapping (address => invoice[]) invoice_address_list;\nmapping (address => payment[]) payment_credit_map;\nmapping (address => payment[]) payment_debit_map;\n\n\nuint private account_counter;\nuint private invoice_counter;\nuint private product_counter;\nuint private payment_counter;\naddress[] trader_list;\n\nenum product_type { PRODUCT, SERVICE }\nenum gst_category { IGST, CGST_SGST }\nenum qty_types { PIECE, LITRE }\n\nfunction transfer(address _to, uint256 _value, bool cash_type) public returns (bool success) {\n        require(balanceOf[msg.sender] >= _value);\n        uint ts = block.timestamp;\n        balanceOf[msg.sender] -= _value;\n        balanceOf[_to] += _value;\n        payment_counter+=1;\n        payment memory receipt = payment({timestamp: ts, receiptCode:payment_counter, amount:_value, cash: cash_type});\n        payment_credit_map[_to].push(receipt);\n        payment_debit_map[msg.sender].push(receipt);\n        emit Transfer(msg.sender, _to, _value);\n\n        return true;\n    }\n\nfunction validateInvoice() private pure returns (bool){\n   \n       return true;\n}\n\nfunction paymentData() public view returns (payment[] memory, payment[] memory){\n\n  return (payment_credit_map[msg.sender], payment_debit_map[msg.sender]);\n\n}\n\nfunction createInvoice(address buyer, item[] memory items ) public returns (uint, bool){\n    \n    invoice memory inv;\n    inv = invoice(address_code[buyer],buyer,address_code[msg.sender], msg.sender,0,0,0,0);\n    uint total_gst =0;\n    uint total =0;\n    uint code;\n    uint qty;\n    uint price;\n    uint rate;\n\n    for(uint i=0; i<items.length;i++){\n        code=items[i].product_code;\n        qty=items[i].qty;\n        price=items[i].price;\n        rate=gst_rate[code];\n        total+=(price*qty);\n        total_gst+=((price*rate*qty)/100);\n    }\n\n    inv.total_gst = total_gst;\n    inv.total = total;\n    \n    if (validateInvoice()){\n        if(transfer(buyer, inv.total_gst, false)){\n        invoice_counter+=1;\n        inv.invoice_code=invoice_counter;\n        code_invoice[inv.invoice_code]=inv;\n        invoice_address_list[msg.sender].push(inv);\n        \n        return (inv.invoice_code, false);\n        }\n        else{\n            revert(\"Invalid value\");\n        }\n\n    }\n    else{\n        return (0,false);\n    }\n}\n\nfunction payAmount(address user, uint amount) public returns (bool){\n    if (transfer(user, amount,true)){\n    return true;\n    }\n    else{\n        return false;\n    }\n\n}\n\nfunction createInvoicePlain(address buyer, uint total_gst, uint total ) public returns (uint, bool){\n    \n    invoice memory inv;\n    uint ts = block.timestamp;\n    inv = invoice(address_code[buyer],buyer,address_code[msg.sender], msg.sender,0,total_gst,total, ts);\n\n    if (validateInvoice()){\n        if(transfer(buyer, inv.total_gst,false)){\n        invoice_counter+=1;\n        inv.invoice_code=invoice_counter;\n        code_invoice[inv.invoice_code]=inv;\n        invoice_address_list[msg.sender].push(inv);\n        return (inv.invoice_code, false);\n        }\n        else{\n            revert(\"Invalid value\");\n        }\n\n    }\n    else{\n        return (0,false);\n    }\n}\n\nfunction queryInv() public view returns (invoice[] memory){\n  return invoice_address_list[msg.sender];\n}\n\nfunction addTrader() public returns (uint){\n    account_counter+=1;\n    address_code[msg.sender]=account_counter;\n    code_address[account_counter]=msg.sender;\n    trader_list.push(msg.sender);\n    return account_counter;\n}\n\nfunction invoiceCode(uint256 code) public view returns (invoice memory){\n    \n    return code_invoice[code];\n}\n\nfunction checkTrader() public view returns (bool){\n  for (uint i; i < trader_list.length; i++) {\n        if (trader_list[i] == msg.sender) {\n            \n            return true;\n        }\n  }\n  return false;\n}\n\n\nfunction checkBalance(address user) public view returns (uint){\n    return balanceOf[user];\n\n}\n\nfunction selfBalance() public view returns (uint){\n    return balanceOf[msg.sender];\n\n}\nfunction addProduct(string memory name, uint rate) public returns (uint){\n    product_counter+=1;\n    gst_rate[product_counter]=rate;\n    product memory p;\n    p=product(name,product_counter,rate);\n    product_list[product_counter]=p;\n    return product_counter;\n}\n\n\n\nenum state_list {\nANDHRA_PRADESH,\nARUNACHAL_PRADESH,\nASSAM,\nBIHAR,\nCHHATTISGARH,\nGOA,\nGUJARAT,\nHARYANA,\nHIMACHAL_PRADESH,\nJAMMU_AND_KASHMIR,\nJHARKHAND,\nKARNATAKA,\nKERALA,\nMADHYA_PRADESH,\nMAHARASHTRA,\nMANIPUR,\nMEGHALAYA,\nMIZORAM,\nNAGALAND,\nODISHA,\nPUNJAB,\nRAJASTHAN,\nSIKKIM,\nTAMIL_NADU,\nTELANGANA,\nTRIPURA,\nUTTAR_PRADESH,\nUTTARAKHAND,\nWEST_BENGAL,\nANDAMAN_AND_NICOBAR_ISLANDS,\nCHANDIGARH,\nDADRA_AND_NAGAR_HAVELI,\nDAMAN_AND_DIU,\nDELHI,\nLADAKH,\nLAKSHADWEEP\n}\n\n\n\n}\n\n",
  "sourcePath": "C:\\Users\\smrut\\Documents\\Dapp\\gst\\contracts\\GST.sol",
  "compiler": {
    "name": "solc",
    "version": "0.8.17+commit.8df45f5f.Emscripten.clang"
  },
  "schemaVersion": "3.4.10",
  "updatedAt": "2022-10-23T10:17:13.327Z",
  "networkType": "ethereum",
  "devdoc": {
    "kind": "dev",
    "methods": {},
    "version": 1
  },
  "userdoc": {
    "kind": "user",
    "methods": {},
    "version": 1
  }
}